{
  "contractName": "Payment",
  "abi": [
    {
      "inputs": [],
      "stateMutability": "nonpayable",
      "type": "constructor"
    },
    {
      "anonymous": false,
      "inputs": [
        {
          "indexed": false,
          "internalType": "address payable",
          "name": "_destinoTransferencia",
          "type": "address"
        },
        {
          "indexed": false,
          "internalType": "address",
          "name": "_origenTransferencia",
          "type": "address"
        },
        {
          "indexed": false,
          "internalType": "uint256",
          "name": "montoTransferencia",
          "type": "uint256"
        }
      ],
      "name": "TransferirMonto",
      "type": "event"
    },
    {
      "inputs": [
        {
          "internalType": "address payable",
          "name": "_destinoTransferencia",
          "type": "address"
        }
      ],
      "name": "nuevaTransaccion",
      "outputs": [
        {
          "internalType": "bool",
          "name": "",
          "type": "bool"
        }
      ],
      "stateMutability": "payable",
      "type": "function"
    },
    {
      "inputs": [],
      "name": "verBalanceCuenta",
      "outputs": [
        {
          "internalType": "uint256",
          "name": "",
          "type": "uint256"
        }
      ],
      "stateMutability": "payable",
      "type": "function"
    }
  ],
  "bytecode": "0x608060405234801561001057600080fd5b50336000806101000a81548173ffffffffffffffffffffffffffffffffffffffff021916908373ffffffffffffffffffffffffffffffffffffffff160217905550610385806100606000396000f3fe6080604052600436106100295760003560e01c806372e713ac1461002e578063e005f9201461004c575b600080fd5b61003661007c565b60405161004391906102be565b60405180910390f35b61006660048036038101906100619190610203565b6100bc565b60405161007391906102a3565b60405180910390f35b60008060009054906101000a900473ffffffffffffffffffffffffffffffffffffffff1673ffffffffffffffffffffffffffffffffffffffff1631905090565b600081600160006101000a81548173ffffffffffffffffffffffffffffffffffffffff021916908373ffffffffffffffffffffffffffffffffffffffff160217905550600160009054906101000a900473ffffffffffffffffffffffffffffffffffffffff1673ffffffffffffffffffffffffffffffffffffffff166108fc349081150290604051600060405180830381858888f19350505050158015610167573d6000803e3d6000fd5b507ffc1ff50638c53d8cb428005e102107cffd2da1840abf5289da2981b8e99c6420600160009054906101000a900473ffffffffffffffffffffffffffffffffffffffff1660008054906101000a900473ffffffffffffffffffffffffffffffffffffffff16346040516101dd9392919061026c565b60405180910390a160019050919050565b6000813590506101fd81610338565b92915050565b60006020828403121561021957610218610333565b5b6000610227848285016101ee565b91505092915050565b610239816102eb565b82525050565b610248816102d9565b82525050565b610257816102fd565b82525050565b61026681610329565b82525050565b60006060820190506102816000830186610230565b61028e602083018561023f565b61029b604083018461025d565b949350505050565b60006020820190506102b8600083018461024e565b92915050565b60006020820190506102d3600083018461025d565b92915050565b60006102e482610309565b9050919050565b60006102f682610309565b9050919050565b60008115159050919050565b600073ffffffffffffffffffffffffffffffffffffffff82169050919050565b6000819050919050565b600080fd5b610341816102eb565b811461034c57600080fd5b5056fea264697066735822122034607b81614b3633b82705da848a68036b617c5095ed2af6e861764ed2f6ed5164736f6c63430008070033",
  "immutableReferences": {},
  "source": "pragma solidity 0.8.7;\r\n\r\ncontract Payment {\r\n    address origenTransferencia;\r\n    address payable destinoTransferencia;\r\n    uint montoTransferencia;\r\n    \r\n    constructor() public {\r\n        origenTransferencia = msg.sender;\r\n    }\r\n\r\n    event TransferirMonto(address payable _destinoTransferencia, address _origenTransferencia, uint montoTransferencia);\r\n    \r\n    function nuevaTransaccion(address payable _destinoTransferencia) public payable returns (bool){\r\n        destinoTransferencia = _destinoTransferencia;\r\n        destinoTransferencia.transfer(msg.value);\r\n        emit TransferirMonto(destinoTransferencia, origenTransferencia, msg.value);\r\n        return true;\r\n    }\r\n    function verBalanceCuenta() public payable returns (uint) {\r\n        return origenTransferencia.balance;\r\n    }\r\n}",
  "sourcePath": "C:\\Users\\vm1pm\\Documents\\AngularTruffleDapp\\Blockchain\\contracts\\Payment.sol",
  "compiler": {
    "name": "solc",
    "version": "0.8.7+commit.e28d00a7.Emscripten.clang"
  },
  "schemaVersion": "3.4.3",
  "updatedAt": "2021-09-30T18:52:05.352Z",
  "devdoc": {
    "kind": "dev",
    "methods": {},
    "version": 1
  },
  "userdoc": {
    "kind": "user",
    "methods": {},
    "version": 1
  }
}